{
  "_format": "hh-sol-artifact-1",
  "contractName": "MyEpicNFT",
  "sourceName": "contracts/MyEpicNFT.sol",
  "abi": [
    {
      "inputs": [],
      "stateMutability": "nonpayable",
      "type": "constructor"
    },
    {
      "anonymous": false,
      "inputs": [
        {
          "indexed": true,
          "internalType": "address",
          "name": "owner",
          "type": "address"
        },
        {
          "indexed": true,
          "internalType": "address",
          "name": "approved",
          "type": "address"
        },
        {
          "indexed": true,
          "internalType": "uint256",
          "name": "tokenId",
          "type": "uint256"
        }
      ],
      "name": "Approval",
      "type": "event"
    },
    {
      "anonymous": false,
      "inputs": [
        {
          "indexed": true,
          "internalType": "address",
          "name": "owner",
          "type": "address"
        },
        {
          "indexed": true,
          "internalType": "address",
          "name": "operator",
          "type": "address"
        },
        {
          "indexed": false,
          "internalType": "bool",
          "name": "approved",
          "type": "bool"
        }
      ],
      "name": "ApprovalForAll",
      "type": "event"
    },
    {
      "anonymous": false,
      "inputs": [
        {
          "indexed": false,
          "internalType": "address",
          "name": "sender",
          "type": "address"
        },
        {
          "indexed": false,
          "internalType": "uint256",
          "name": "tokenId",
          "type": "uint256"
        }
      ],
      "name": "NewEpicNFTMinted",
      "type": "event"
    },
    {
      "anonymous": false,
      "inputs": [
        {
          "indexed": true,
          "internalType": "address",
          "name": "from",
          "type": "address"
        },
        {
          "indexed": true,
          "internalType": "address",
          "name": "to",
          "type": "address"
        },
        {
          "indexed": true,
          "internalType": "uint256",
          "name": "tokenId",
          "type": "uint256"
        }
      ],
      "name": "Transfer",
      "type": "event"
    },
    {
      "inputs": [
        {
          "internalType": "address",
          "name": "to",
          "type": "address"
        },
        {
          "internalType": "uint256",
          "name": "tokenId",
          "type": "uint256"
        }
      ],
      "name": "approve",
      "outputs": [],
      "stateMutability": "nonpayable",
      "type": "function"
    },
    {
      "inputs": [
        {
          "internalType": "address",
          "name": "owner",
          "type": "address"
        }
      ],
      "name": "balanceOf",
      "outputs": [
        {
          "internalType": "uint256",
          "name": "",
          "type": "uint256"
        }
      ],
      "stateMutability": "view",
      "type": "function"
    },
    {
      "inputs": [
        {
          "internalType": "uint256",
          "name": "tokenId",
          "type": "uint256"
        }
      ],
      "name": "getApproved",
      "outputs": [
        {
          "internalType": "address",
          "name": "",
          "type": "address"
        }
      ],
      "stateMutability": "view",
      "type": "function"
    },
    {
      "inputs": [],
      "name": "getTotalNFTs",
      "outputs": [
        {
          "internalType": "uint256",
          "name": "",
          "type": "uint256"
        }
      ],
      "stateMutability": "view",
      "type": "function"
    },
    {
      "inputs": [
        {
          "internalType": "address",
          "name": "owner",
          "type": "address"
        },
        {
          "internalType": "address",
          "name": "operator",
          "type": "address"
        }
      ],
      "name": "isApprovedForAll",
      "outputs": [
        {
          "internalType": "bool",
          "name": "",
          "type": "bool"
        }
      ],
      "stateMutability": "view",
      "type": "function"
    },
    {
      "inputs": [],
      "name": "makeAnEpicNFT",
      "outputs": [],
      "stateMutability": "nonpayable",
      "type": "function"
    },
    {
      "inputs": [],
      "name": "name",
      "outputs": [
        {
          "internalType": "string",
          "name": "",
          "type": "string"
        }
      ],
      "stateMutability": "view",
      "type": "function"
    },
    {
      "inputs": [
        {
          "internalType": "uint256",
          "name": "tokenId",
          "type": "uint256"
        }
      ],
      "name": "ownerOf",
      "outputs": [
        {
          "internalType": "address",
          "name": "",
          "type": "address"
        }
      ],
      "stateMutability": "view",
      "type": "function"
    },
    {
      "inputs": [
        {
          "internalType": "uint256",
          "name": "tokenId",
          "type": "uint256"
        }
      ],
      "name": "pickRandomColor",
      "outputs": [
        {
          "internalType": "string",
          "name": "",
          "type": "string"
        }
      ],
      "stateMutability": "view",
      "type": "function"
    },
    {
      "inputs": [
        {
          "internalType": "uint256",
          "name": "tokenId",
          "type": "uint256"
        }
      ],
      "name": "pickRandomFirstWord",
      "outputs": [
        {
          "internalType": "string",
          "name": "",
          "type": "string"
        }
      ],
      "stateMutability": "view",
      "type": "function"
    },
    {
      "inputs": [
        {
          "internalType": "uint256",
          "name": "tokenId",
          "type": "uint256"
        }
      ],
      "name": "pickRandomSecondWord",
      "outputs": [
        {
          "internalType": "string",
          "name": "",
          "type": "string"
        }
      ],
      "stateMutability": "view",
      "type": "function"
    },
    {
      "inputs": [
        {
          "internalType": "uint256",
          "name": "tokenId",
          "type": "uint256"
        }
      ],
      "name": "pickRandomThirdWord",
      "outputs": [
        {
          "internalType": "string",
          "name": "",
          "type": "string"
        }
      ],
      "stateMutability": "view",
      "type": "function"
    },
    {
      "inputs": [
        {
          "internalType": "address",
          "name": "from",
          "type": "address"
        },
        {
          "internalType": "address",
          "name": "to",
          "type": "address"
        },
        {
          "internalType": "uint256",
          "name": "tokenId",
          "type": "uint256"
        }
      ],
      "name": "safeTransferFrom",
      "outputs": [],
      "stateMutability": "nonpayable",
      "type": "function"
    },
    {
      "inputs": [
        {
          "internalType": "address",
          "name": "from",
          "type": "address"
        },
        {
          "internalType": "address",
          "name": "to",
          "type": "address"
        },
        {
          "internalType": "uint256",
          "name": "tokenId",
          "type": "uint256"
        },
        {
          "internalType": "bytes",
          "name": "_data",
          "type": "bytes"
        }
      ],
      "name": "safeTransferFrom",
      "outputs": [],
      "stateMutability": "nonpayable",
      "type": "function"
    },
    {
      "inputs": [
        {
          "internalType": "address",
          "name": "operator",
          "type": "address"
        },
        {
          "internalType": "bool",
          "name": "approved",
          "type": "bool"
        }
      ],
      "name": "setApprovalForAll",
      "outputs": [],
      "stateMutability": "nonpayable",
      "type": "function"
    },
    {
      "inputs": [
        {
          "internalType": "bytes4",
          "name": "interfaceId",
          "type": "bytes4"
        }
      ],
      "name": "supportsInterface",
      "outputs": [
        {
          "internalType": "bool",
          "name": "",
          "type": "bool"
        }
      ],
      "stateMutability": "view",
      "type": "function"
    },
    {
      "inputs": [],
      "name": "symbol",
      "outputs": [
        {
          "internalType": "string",
          "name": "",
          "type": "string"
        }
      ],
      "stateMutability": "view",
      "type": "function"
    },
    {
      "inputs": [
        {
          "internalType": "uint256",
          "name": "tokenId",
          "type": "uint256"
        }
      ],
      "name": "tokenURI",
      "outputs": [
        {
          "internalType": "string",
          "name": "",
          "type": "string"
        }
      ],
      "stateMutability": "view",
      "type": "function"
    },
    {
      "inputs": [
        {
          "internalType": "address",
          "name": "from",
          "type": "address"
        },
        {
          "internalType": "address",
          "name": "to",
          "type": "address"
        },
        {
          "internalType": "uint256",
          "name": "tokenId",
          "type": "uint256"
        }
      ],
      "name": "transferFrom",
      "outputs": [],
      "stateMutability": "nonpayable",
      "type": "function"
    }
  ],
  "bytecode": "0x6080604052600060085560405180610100016040528060d381526020016200482b60d39139600990805190602001906200003b92919062000831565b50604051806080016040528060568152602001620048fe60569139600a90805190602001906200006d92919062000831565b506040518060c001604052806040518060400160405280600781526020017f417765736f6d650000000000000000000000000000000000000000000000000081525081526020016040518060400160405280600581526020017f427261766500000000000000000000000000000000000000000000000000000081525081526020016040518060400160405280600981526020017f42656175746966756c000000000000000000000000000000000000000000000081525081526020016040518060400160405280600581526020017f4372617a7900000000000000000000000000000000000000000000000000000081525081526020016040518060400160405280600581526020017f477265617400000000000000000000000000000000000000000000000000000081525081526020016040518060400160405280600581526020017f4964696f74000000000000000000000000000000000000000000000000000000815250815250600b906006620001eb929190620008c2565b506040518060c001604052806040518060400160405280600381526020017f446f67000000000000000000000000000000000000000000000000000000000081525081526020016040518060400160405280600381526020017f436174000000000000000000000000000000000000000000000000000000000081525081526020016040518060400160405280600381526020017f506967000000000000000000000000000000000000000000000000000000000081525081526020016040518060400160405280600481526020017f426972640000000000000000000000000000000000000000000000000000000081525081526020016040518060400160405280600681526020017f447261676f6e000000000000000000000000000000000000000000000000000081525081526020016040518060400160405280600581526020017f5469676572000000000000000000000000000000000000000000000000000000815250815250600c90600662000369929190620008c2565b506040518060c001604052806040518060400160405280600681526020017f59656c6c6f77000000000000000000000000000000000000000000000000000081525081526020016040518060400160405280600381526020017f526564000000000000000000000000000000000000000000000000000000000081525081526020016040518060400160405280600581526020017f477265656e00000000000000000000000000000000000000000000000000000081525081526020016040518060400160405280600481526020017f426c75650000000000000000000000000000000000000000000000000000000081525081526020016040518060400160405280600481526020017f4379616e0000000000000000000000000000000000000000000000000000000081525081526020016040518060400160405280600581526020017f426c61636b000000000000000000000000000000000000000000000000000000815250815250600d906006620004e7929190620008c2565b506040518060c001604052806040518060400160405280600381526020017f726564000000000000000000000000000000000000000000000000000000000081525081526020016040518060400160405280600781526020017f233038433241380000000000000000000000000000000000000000000000000081525081526020016040518060400160405280600581526020017f626c61636b00000000000000000000000000000000000000000000000000000081525081526020016040518060400160405280600681526020017f79656c6c6f77000000000000000000000000000000000000000000000000000081525081526020016040518060400160405280600481526020017f626c75650000000000000000000000000000000000000000000000000000000081525081526020016040518060400160405280600581526020017f677265656e000000000000000000000000000000000000000000000000000000815250815250600e90600662000665929190620008c2565b503480156200067357600080fd5b506040518060400160405280600981526020017f5371756172654e465400000000000000000000000000000000000000000000008152506040518060400160405280600681526020017f53515541524500000000000000000000000000000000000000000000000000008152508160009080519060200190620006f892919062000831565b5080600190805190602001906200071192919062000831565b5050506200075f6040518060400160405280601e81526020017f54686973206973206d79204e465420636f6e74726163742e20576f61682100008152506200076560201b6200145f1760201c565b62000ae3565b62000805816040516024016200077c9190620009f7565b6040516020818303038152906040527f41304fac000000000000000000000000000000000000000000000000000000007bffffffffffffffffffffffffffffffffffffffffffffffffffffffff19166020820180517bffffffffffffffffffffffffffffffffffffffffffffffffffffffff83818316178352505050506200080860201b60201c565b50565b60008151905060006a636f6e736f6c652e6c6f679050602083016000808483855afa5050505050565b8280546200083f9062000a6d565b90600052602060002090601f016020900481019282620008635760008555620008af565b82601f106200087e57805160ff1916838001178555620008af565b82800160010185558215620008af579182015b82811115620008ae57825182559160200191906001019062000891565b5b509050620008be919062000929565b5090565b82805482825590600052602060002090810192821562000916579160200282015b82811115620009155782518290805190602001906200090492919062000831565b5091602001919060010190620008e3565b5b50905062000925919062000948565b5090565b5b80821115620009445760008160009055506001016200092a565b5090565b5b808211156200096c576000818162000962919062000970565b5060010162000949565b5090565b5080546200097e9062000a6d565b6000825580601f10620009925750620009b3565b601f016020900490600052602060002090810190620009b2919062000929565b5b50565b6000620009c38262000a1b565b620009cf818562000a26565b9350620009e181856020860162000a37565b620009ec8162000ad2565b840191505092915050565b6000602082019050818103600083015262000a138184620009b6565b905092915050565b600081519050919050565b600082825260208201905092915050565b60005b8381101562000a5757808201518184015260208101905062000a3a565b8381111562000a67576000848401525b50505050565b6000600282049050600182168062000a8657607f821691505b6020821081141562000a9d5762000a9c62000aa3565b5b50919050565b7f4e487b7100000000000000000000000000000000000000000000000000000000600052602260045260246000fd5b6000601f19601f8301169050919050565b613d388062000af36000396000f3fe608060405234801561001057600080fd5b50600436106101215760003560e01c80636352211e116100ad578063b88d4fde11610071578063b88d4fde14610340578063c575757a1461035c578063c87b56dd1461038c578063de9d132f146103bc578063e985e9c5146103c657610121565b80636352211e1461027657806370a08231146102a657806395d89b41146102d6578063a22cb465146102f4578063b187301f1461031057610121565b806323b872dd116100f457806323b872dd146101c05780632de38d68146101dc57806330bdb3511461020c57806342842e0e1461022a578063514dc8c61461024657610121565b806301ffc9a71461012657806306fdde0314610156578063081812fc14610174578063095ea7b3146101a4575b600080fd5b610140600480360381019061013b919061278e565b6103f6565b60405161014d9190612ef7565b60405180910390f35b61015e6104d8565b60405161016b9190612f12565b60405180910390f35b61018e600480360381019061018991906127e0565b61056a565b60405161019b9190612e67565b60405180910390f35b6101be60048036038101906101b99190612752565b6105ef565b005b6101da60048036038101906101d5919061264c565b610707565b005b6101f660048036038101906101f191906127e0565b610767565b6040516102039190612f12565b60405180910390f35b610214610885565b60405161022191906131a2565b60405180910390f35b610244600480360381019061023f919061264c565b6108d0565b005b610260600480360381019061025b91906127e0565b6108f0565b60405161026d9190612f12565b60405180910390f35b610290600480360381019061028b91906127e0565b610a0e565b60405161029d9190612e67565b60405180910390f35b6102c060048036038101906102bb91906125e7565b610ac0565b6040516102cd91906131a2565b60405180910390f35b6102de610b78565b6040516102eb9190612f12565b60405180910390f35b61030e60048036038101906103099190612716565b610c0a565b005b61032a600480360381019061032591906127e0565b610d8b565b6040516103379190612f12565b60405180910390f35b61035a6004803603810190610355919061269b565b610ea9565b005b610376600480360381019061037191906127e0565b610f0b565b6040516103839190612f12565b60405180910390f35b6103a660048036038101906103a191906127e0565b611029565b6040516103b39190612f12565b60405180910390f35b6103c461117b565b005b6103e060048036038101906103db9190612610565b6113cb565b6040516103ed9190612ef7565b60405180910390f35b60007f80ac58cd000000000000000000000000000000000000000000000000000000007bffffffffffffffffffffffffffffffffffffffffffffffffffffffff1916827bffffffffffffffffffffffffffffffffffffffffffffffffffffffff191614806104c157507f5b5e139f000000000000000000000000000000000000000000000000000000007bffffffffffffffffffffffffffffffffffffffffffffffffffffffff1916827bffffffffffffffffffffffffffffffffffffffffffffffffffffffff1916145b806104d157506104d0826114f8565b5b9050919050565b6060600080546104e790613436565b80601f016020809104026020016040519081016040528092919081815260200182805461051390613436565b80156105605780601f1061053557610100808354040283529160200191610560565b820191906000526020600020905b81548152906001019060200180831161054357829003601f168201915b5050505050905090565b600061057582611562565b6105b4576040517f08c379a00000000000000000000000000000000000000000000000000000000081526004016105ab90613102565b60405180910390fd5b6004600083815260200190815260200160002060009054906101000a900473ffffffffffffffffffffffffffffffffffffffff169050919050565b60006105fa82610a0e565b90508073ffffffffffffffffffffffffffffffffffffffff168373ffffffffffffffffffffffffffffffffffffffff16141561066b576040517f08c379a000000000000000000000000000000000000000000000000000000000815260040161066290613162565b60405180910390fd5b8073ffffffffffffffffffffffffffffffffffffffff1661068a6115ce565b73ffffffffffffffffffffffffffffffffffffffff1614806106b957506106b8816106b36115ce565b6113cb565b5b6106f8576040517f08c379a00000000000000000000000000000000000000000000000000000000081526004016106ef90613042565b60405180910390fd5b61070283836115d6565b505050565b6107186107126115ce565b8261168f565b610757576040517f08c379a000000000000000000000000000000000000000000000000000000000815260040161074e90613182565b60405180910390fd5b61076283838361176d565b505050565b6060600061079b610777846119c9565b6040516020016107879190612e01565b604051602081830303815290604052611b76565b9050600b80549050816107ae91906134e2565b9050600b81815481106107ea577f4e487b7100000000000000000000000000000000000000000000000000000000600052603260045260246000fd5b9060005260206000200180546107ff90613436565b80601f016020809104026020016040519081016040528092919081815260200182805461082b90613436565b80156108785780601f1061084d57610100808354040283529160200191610878565b820191906000526020600020905b81548152906001019060200180831161085b57829003601f168201915b5050505050915050919050565b60006108c86040518060400160405280601681526020017f5765206861766520256420746f74616c204e4654732100000000000000000000815250600854611ba9565b600854905090565b6108eb83838360405180602001604052806000815250610ea9565b505050565b60606000610924610900846119c9565b6040516020016109109190612e45565b604051602081830303815290604052611b76565b9050600e805490508161093791906134e2565b9050600e8181548110610973577f4e487b7100000000000000000000000000000000000000000000000000000000600052603260045260246000fd5b90600052602060002001805461098890613436565b80601f01602080910402602001604051908101604052809291908181526020018280546109b490613436565b8015610a015780601f106109d657610100808354040283529160200191610a01565b820191906000526020600020905b8154815290600101906020018083116109e457829003601f168201915b5050505050915050919050565b6000806002600084815260200190815260200160002060009054906101000a900473ffffffffffffffffffffffffffffffffffffffff169050600073ffffffffffffffffffffffffffffffffffffffff168173ffffffffffffffffffffffffffffffffffffffff161415610ab7576040517f08c379a0000000000000000000000000000000000000000000000000000000008152600401610aae90613082565b60405180910390fd5b80915050919050565b60008073ffffffffffffffffffffffffffffffffffffffff168273ffffffffffffffffffffffffffffffffffffffff161415610b31576040517f08c379a0000000000000000000000000000000000000000000000000000000008152600401610b2890613062565b60405180910390fd5b600360008373ffffffffffffffffffffffffffffffffffffffff1673ffffffffffffffffffffffffffffffffffffffff168152602001908152602001600020549050919050565b606060018054610b8790613436565b80601f0160208091040260200160405190810160405280929190818152602001828054610bb390613436565b8015610c005780601f10610bd557610100808354040283529160200191610c00565b820191906000526020600020905b815481529060010190602001808311610be357829003601f168201915b5050505050905090565b610c126115ce565b73ffffffffffffffffffffffffffffffffffffffff168273ffffffffffffffffffffffffffffffffffffffff161415610c80576040517f08c379a0000000000000000000000000000000000000000000000000000000008152600401610c7790613002565b60405180910390fd5b8060056000610c8d6115ce565b73ffffffffffffffffffffffffffffffffffffffff1673ffffffffffffffffffffffffffffffffffffffff16815260200190815260200160002060008473ffffffffffffffffffffffffffffffffffffffff1673ffffffffffffffffffffffffffffffffffffffff16815260200190815260200160002060006101000a81548160ff0219169083151502179055508173ffffffffffffffffffffffffffffffffffffffff16610d3a6115ce565b73ffffffffffffffffffffffffffffffffffffffff167f17307eab39ab6107e8899845ad3d59bd9653f200f220920489ca2b5937696c3183604051610d7f9190612ef7565b60405180910390a35050565b60606000610dbf610d9b846119c9565b604051602001610dab9190612d9a565b604051602081830303815290604052611b76565b9050600c8054905081610dd291906134e2565b9050600c8181548110610e0e577f4e487b7100000000000000000000000000000000000000000000000000000000600052603260045260246000fd5b906000526020600020018054610e2390613436565b80601f0160208091040260200160405190810160405280929190818152602001828054610e4f90613436565b8015610e9c5780601f10610e7157610100808354040283529160200191610e9c565b820191906000526020600020905b815481529060010190602001808311610e7f57829003601f168201915b5050505050915050919050565b610eba610eb46115ce565b8361168f565b610ef9576040517f08c379a0000000000000000000000000000000000000000000000000000000008152600401610ef090613182565b60405180910390fd5b610f0584848484611c45565b50505050565b60606000610f3f610f1b846119c9565b604051602001610f2b9190612d78565b604051602081830303815290604052611b76565b9050600d8054905081610f5291906134e2565b9050600d8181548110610f8e577f4e487b7100000000000000000000000000000000000000000000000000000000600052603260045260246000fd5b906000526020600020018054610fa390613436565b80601f0160208091040260200160405190810160405280929190818152602001828054610fcf90613436565b801561101c5780601f10610ff15761010080835404028352916020019161101c565b820191906000526020600020905b815481529060010190602001808311610fff57829003601f168201915b5050505050915050919050565b606061103482611562565b611073576040517f08c379a000000000000000000000000000000000000000000000000000000000815260040161106a906130e2565b60405180910390fd5b600060066000848152602001908152602001600020805461109390613436565b80601f01602080910402602001604051908101604052809291908181526020018280546110bf90613436565b801561110c5780601f106110e15761010080835404028352916020019161110c565b820191906000526020600020905b8154815290600101906020018083116110ef57829003601f168201915b50505050509050600061111d611ca1565b9050600081511415611133578192505050611176565b600082511115611168578082604051602001611150929190612cda565b60405160208183030381529060405292505050611176565b61117184611cb8565b925050505b919050565b600160085461118a919061326b565b6008819055506111d16040518060400160405280600b81526020017f746f74616c4e4654733a20000000000000000000000000000000000000000000815250600854611ba9565b60006111dd6007611d5f565b905060006111ea82610767565b905060006111f783610d8b565b9050600061120484610f0b565b9050600083838360405160200161121d93929190612cfe565b60405160208183030381529060405290506000611239866108f0565b90506000600982600a856040516020016112569493929190612d2f565b6040516020818303038152906040529050600061129b8461127684611d6d565b604051602001611287929190612dbc565b604051602081830303815290604052611d6d565b90506000816040516020016112b09190612e23565b60405160208183030381529060405290506112ff6040518060400160405280601581526020017f0a2d2d2d2d2d2d2d2d2d2d2d2d2d2d2d2d2d2d2d2d000000000000000000000081525061145f565b6113088161145f565b6113466040518060400160405280601581526020017f2d2d2d2d2d2d2d2d2d2d2d2d2d2d2d2d2d2d2d2d0a000000000000000000000081525061145f565b611350338a611f2b565b61135a8982611f49565b6113646007611fbd565b611387604051806060016040528060258152602001613c9e602591398a33611fd3565b7febb98688741ffa4c7589bf325de30cf7becb63de567842e1ccdb6cb949fdc82c338a6040516113b8929190612ece565b60405180910390a1505050505050505050565b6000600560008473ffffffffffffffffffffffffffffffffffffffff1673ffffffffffffffffffffffffffffffffffffffff16815260200190815260200160002060008373ffffffffffffffffffffffffffffffffffffffff1673ffffffffffffffffffffffffffffffffffffffff16815260200190815260200160002060009054906101000a900460ff16905092915050565b6114f5816040516024016114739190612f12565b6040516020818303038152906040527f41304fac000000000000000000000000000000000000000000000000000000007bffffffffffffffffffffffffffffffffffffffffffffffffffffffff19166020820180517bffffffffffffffffffffffffffffffffffffffffffffffffffffffff8381831617835250505050612072565b50565b60007f01ffc9a7000000000000000000000000000000000000000000000000000000007bffffffffffffffffffffffffffffffffffffffffffffffffffffffff1916827bffffffffffffffffffffffffffffffffffffffffffffffffffffffff1916149050919050565b60008073ffffffffffffffffffffffffffffffffffffffff166002600084815260200190815260200160002060009054906101000a900473ffffffffffffffffffffffffffffffffffffffff1673ffffffffffffffffffffffffffffffffffffffff1614159050919050565b600033905090565b816004600083815260200190815260200160002060006101000a81548173ffffffffffffffffffffffffffffffffffffffff021916908373ffffffffffffffffffffffffffffffffffffffff160217905550808273ffffffffffffffffffffffffffffffffffffffff1661164983610a0e565b73ffffffffffffffffffffffffffffffffffffffff167f8c5be1e5ebec7d5bd14f71427d1e84f3dd0314c0f7b2291e5b200ac8c7c3b92560405160405180910390a45050565b600061169a82611562565b6116d9576040517f08c379a00000000000000000000000000000000000000000000000000000000081526004016116d090613022565b60405180910390fd5b60006116e483610a0e565b90508073ffffffffffffffffffffffffffffffffffffffff168473ffffffffffffffffffffffffffffffffffffffff16148061175357508373ffffffffffffffffffffffffffffffffffffffff1661173b8461056a565b73ffffffffffffffffffffffffffffffffffffffff16145b80611764575061176381856113cb565b5b91505092915050565b8273ffffffffffffffffffffffffffffffffffffffff1661178d82610a0e565b73ffffffffffffffffffffffffffffffffffffffff16146117e3576040517f08c379a00000000000000000000000000000000000000000000000000000000081526004016117da90613122565b60405180910390fd5b600073ffffffffffffffffffffffffffffffffffffffff168273ffffffffffffffffffffffffffffffffffffffff161415611853576040517f08c379a000000000000000000000000000000000000000000000000000000000815260040161184a90612fe2565b60405180910390fd5b61185e83838361209b565b6118696000826115d6565b6001600360008573ffffffffffffffffffffffffffffffffffffffff1673ffffffffffffffffffffffffffffffffffffffff16815260200190815260200160002060008282546118b9919061334c565b925050819055506001600360008473ffffffffffffffffffffffffffffffffffffffff1673ffffffffffffffffffffffffffffffffffffffff1681526020019081526020016000206000828254611910919061326b565b92505081905550816002600083815260200190815260200160002060006101000a81548173ffffffffffffffffffffffffffffffffffffffff021916908373ffffffffffffffffffffffffffffffffffffffff160217905550808273ffffffffffffffffffffffffffffffffffffffff168473ffffffffffffffffffffffffffffffffffffffff167fddf252ad1be2c89b69c2b068fc378daa952ba7f163c4a11628f55a4df523b3ef60405160405180910390a4505050565b60606000821415611a11576040518060400160405280600181526020017f30000000000000000000000000000000000000000000000000000000000000008152509050611b71565b600082905060005b60008214611a43578080611a2c90613499565b915050600a82611a3c91906132c1565b9150611a19565b60008167ffffffffffffffff811115611a85577f4e487b7100000000000000000000000000000000000000000000000000000000600052604160045260246000fd5b6040519080825280601f01601f191660200182016040528015611ab75781602001600182028036833780820191505090505b5090505b60008514611b6a57600182611ad0919061334c565b9150600a85611adf91906134e2565b6030611aeb919061326b565b60f81b818381518110611b27577f4e487b7100000000000000000000000000000000000000000000000000000000600052603260045260246000fd5b60200101907effffffffffffffffffffffffffffffffffffffffffffffffffffffffffffff1916908160001a905350600a85611b6391906132c1565b9450611abb565b8093505050505b919050565b600081604051602001611b899190612cc3565b6040516020818303038152906040528051906020012060001c9050919050565b611c418282604051602401611bbf929190612f34565b6040516020818303038152906040527f9710a9d0000000000000000000000000000000000000000000000000000000007bffffffffffffffffffffffffffffffffffffffffffffffffffffffff19166020820180517bffffffffffffffffffffffffffffffffffffffffffffffffffffffff8381831617835250505050612072565b5050565b611c5084848461176d565b611c5c848484846120a0565b611c9b576040517f08c379a0000000000000000000000000000000000000000000000000000000008152600401611c9290612fa2565b60405180910390fd5b50505050565b606060405180602001604052806000815250905090565b6060611cc382611562565b611d02576040517f08c379a0000000000000000000000000000000000000000000000000000000008152600401611cf990613142565b60405180910390fd5b6000611d0c611ca1565b90506000815111611d2c5760405180602001604052806000815250611d57565b80611d36846119c9565b604051602001611d47929190612cda565b6040516020818303038152906040525b915050919050565b600081600001549050919050565b60606000825190506000811415611d965760405180602001604052806000815250915050611f26565b60006003600283611da7919061326b565b611db191906132c1565b6004611dbd91906132f2565b90506000602082611dce919061326b565b67ffffffffffffffff811115611e0d577f4e487b7100000000000000000000000000000000000000000000000000000000600052604160045260246000fd5b6040519080825280601f01601f191660200182016040528015611e3f5781602001600182028036833780820191505090505b5090506000604051806060016040528060408152602001613cc3604091399050600181016020830160005b86811015611ee35760038101905062ffffff818a015116603f8160121c168401518060081b905060ff603f83600c1c1686015116810190508060081b905060ff603f8360061c1686015116810190508060081b905060ff603f831686015116810190508060e01b90508084526004840193505050611e6a565b506003860660018114611efd5760028114611f0d57611f18565b613d3d60f01b6002830352611f18565b603d60f81b60018303525b508484525050819450505050505b919050565b611f45828260405180602001604052806000815250612237565b5050565b611f5282611562565b611f91576040517f08c379a0000000000000000000000000000000000000000000000000000000008152600401611f88906130a2565b60405180910390fd5b80600660008481526020019081526020016000209080519060200190611fb8929190612473565b505050565b6001816000016000828254019250508190555050565b61206d838383604051602401611feb93929190612f64565b6040516020818303038152906040527fe3849f79000000000000000000000000000000000000000000000000000000007bffffffffffffffffffffffffffffffffffffffffffffffffffffffff19166020820180517bffffffffffffffffffffffffffffffffffffffffffffffffffffffff8381831617835250505050612072565b505050565b60008151905060006a636f6e736f6c652e6c6f679050602083016000808483855afa5050505050565b505050565b60006120c18473ffffffffffffffffffffffffffffffffffffffff16612292565b1561222a578373ffffffffffffffffffffffffffffffffffffffff1663150b7a026120ea6115ce565b8786866040518563ffffffff1660e01b815260040161210c9493929190612e82565b602060405180830381600087803b15801561212657600080fd5b505af192505050801561215757506040513d601f19601f8201168201806040525081019061215491906127b7565b60015b6121da573d8060008114612187576040519150601f19603f3d011682016040523d82523d6000602084013e61218c565b606091505b506000815114156121d2576040517f08c379a00000000000000000000000000000000000000000000000000000000081526004016121c990612fa2565b60405180910390fd5b805181602001fd5b63150b7a0260e01b7bffffffffffffffffffffffffffffffffffffffffffffffffffffffff1916817bffffffffffffffffffffffffffffffffffffffffffffffffffffffff19161491505061222f565b600190505b949350505050565b61224183836122a5565b61224e60008484846120a0565b61228d576040517f08c379a000000000000000000000000000000000000000000000000000000000815260040161228490612fa2565b60405180910390fd5b505050565b600080823b905060008111915050919050565b600073ffffffffffffffffffffffffffffffffffffffff168273ffffffffffffffffffffffffffffffffffffffff161415612315576040517f08c379a000000000000000000000000000000000000000000000000000000000815260040161230c906130c2565b60405180910390fd5b61231e81611562565b1561235e576040517f08c379a000000000000000000000000000000000000000000000000000000000815260040161235590612fc2565b60405180910390fd5b61236a6000838361209b565b6001600360008473ffffffffffffffffffffffffffffffffffffffff1673ffffffffffffffffffffffffffffffffffffffff16815260200190815260200160002060008282546123ba919061326b565b92505081905550816002600083815260200190815260200160002060006101000a81548173ffffffffffffffffffffffffffffffffffffffff021916908373ffffffffffffffffffffffffffffffffffffffff160217905550808273ffffffffffffffffffffffffffffffffffffffff16600073ffffffffffffffffffffffffffffffffffffffff167fddf252ad1be2c89b69c2b068fc378daa952ba7f163c4a11628f55a4df523b3ef60405160405180910390a45050565b82805461247f90613436565b90600052602060002090601f0160209004810192826124a157600085556124e8565b82601f106124ba57805160ff19168380011785556124e8565b828001600101855582156124e8579182015b828111156124e75782518255916020019190600101906124cc565b5b5090506124f591906124f9565b5090565b5b808211156125125760008160009055506001016124fa565b5090565b6000612529612524846131e2565b6131bd565b90508281526020810184848401111561254157600080fd5b61254c8482856133f4565b509392505050565b60008135905061256381613c41565b92915050565b60008135905061257881613c58565b92915050565b60008135905061258d81613c6f565b92915050565b6000815190506125a281613c6f565b92915050565b600082601f8301126125b957600080fd5b81356125c9848260208601612516565b91505092915050565b6000813590506125e181613c86565b92915050565b6000602082840312156125f957600080fd5b600061260784828501612554565b91505092915050565b6000806040838503121561262357600080fd5b600061263185828601612554565b925050602061264285828601612554565b9150509250929050565b60008060006060848603121561266157600080fd5b600061266f86828701612554565b935050602061268086828701612554565b9250506040612691868287016125d2565b9150509250925092565b600080600080608085870312156126b157600080fd5b60006126bf87828801612554565b94505060206126d087828801612554565b93505060406126e1878288016125d2565b925050606085013567ffffffffffffffff8111156126fe57600080fd5b61270a878288016125a8565b91505092959194509250565b6000806040838503121561272957600080fd5b600061273785828601612554565b925050602061274885828601612569565b9150509250929050565b6000806040838503121561276557600080fd5b600061277385828601612554565b9250506020612784858286016125d2565b9150509250929050565b6000602082840312156127a057600080fd5b60006127ae8482850161257e565b91505092915050565b6000602082840312156127c957600080fd5b60006127d784828501612593565b91505092915050565b6000602082840312156127f257600080fd5b6000612800848285016125d2565b91505092915050565b61281281613380565b82525050565b61282181613392565b82525050565b600061283282613228565b61283c818561323e565b935061284c818560208601613403565b612855816135cf565b840191505092915050565b600061286b82613233565b612875818561324f565b9350612885818560208601613403565b61288e816135cf565b840191505092915050565b60006128a482613233565b6128ae8185613260565b93506128be818560208601613403565b80840191505092915050565b600081546128d781613436565b6128e18186613260565b945060018216600081146128fc576001811461290d57612940565b60ff19831686528186019350612940565b61291685613213565b60005b8381101561293857815481890152600182019150602081019050612919565b838801955050505b50505092915050565b600061295660328361324f565b9150612961826135e0565b604082019050919050565b6000612979601c8361324f565b91506129848261362f565b602082019050919050565b600061299c600a83613260565b91506129a782613658565b600a82019050919050565b60006129bf60248361324f565b91506129ca82613681565b604082019050919050565b60006129e260198361324f565b91506129ed826136d0565b602082019050919050565b6000612a05606383613260565b9150612a10826136f9565b606382019050919050565b6000612a28600b83613260565b9150612a3382613794565b600b82019050919050565b6000612a4b602c8361324f565b9150612a56826137bd565b604082019050919050565b6000612a6e600d83613260565b9150612a798261380c565b600d82019050919050565b6000612a9160388361324f565b9150612a9c82613835565b604082019050919050565b6000612ab4602a8361324f565b9150612abf82613884565b604082019050919050565b6000612ad760298361324f565b9150612ae2826138d3565b604082019050919050565b6000612afa602e8361324f565b9150612b0582613922565b604082019050919050565b6000612b1d600283613260565b9150612b2882613971565b600282019050919050565b6000612b4060208361324f565b9150612b4b8261399a565b602082019050919050565b6000612b6360318361324f565b9150612b6e826139c3565b604082019050919050565b6000612b86602c8361324f565b9150612b9182613a12565b604082019050919050565b6000612ba960298361324f565b9150612bb482613a61565b604082019050919050565b6000612bcc602f8361324f565b9150612bd782613ab0565b604082019050919050565b6000612bef600a83613260565b9150612bfa82613aff565b600a82019050919050565b6000612c1260218361324f565b9150612c1d82613b28565b604082019050919050565b6000612c35600a83613260565b9150612c4082613b77565b600a82019050919050565b6000612c58601d83613260565b9150612c6382613ba0565b601d82019050919050565b6000612c7b60318361324f565b9150612c8682613bc9565b604082019050919050565b6000612c9e600583613260565b9150612ca982613c18565b600582019050919050565b612cbd816133ea565b82525050565b6000612ccf8284612899565b915081905092915050565b6000612ce68285612899565b9150612cf28284612899565b91508190509392505050565b6000612d0a8286612899565b9150612d168285612899565b9150612d228284612899565b9150819050949350505050565b6000612d3b82876128ca565b9150612d478286612899565b9150612d5382856128ca565b9150612d5f8284612899565b9150612d6a82612a61565b915081905095945050505050565b6000612d838261298f565b9150612d8f8284612899565b915081905092915050565b6000612da582612a1b565b9150612db18284612899565b915081905092915050565b6000612dc782612be2565b9150612dd38285612899565b9150612dde826129f8565b9150612dea8284612899565b9150612df582612b10565b91508190509392505050565b6000612e0c82612c28565b9150612e188284612899565b915081905092915050565b6000612e2e82612c4b565b9150612e3a8284612899565b915081905092915050565b6000612e5082612c91565b9150612e5c8284612899565b915081905092915050565b6000602082019050612e7c6000830184612809565b92915050565b6000608082019050612e976000830187612809565b612ea46020830186612809565b612eb16040830185612cb4565b8181036060830152612ec38184612827565b905095945050505050565b6000604082019050612ee36000830185612809565b612ef06020830184612cb4565b9392505050565b6000602082019050612f0c6000830184612818565b92915050565b60006020820190508181036000830152612f2c8184612860565b905092915050565b60006040820190508181036000830152612f4e8185612860565b9050612f5d6020830184612cb4565b9392505050565b60006060820190508181036000830152612f7e8186612860565b9050612f8d6020830185612cb4565b612f9a6040830184612809565b949350505050565b60006020820190508181036000830152612fbb81612949565b9050919050565b60006020820190508181036000830152612fdb8161296c565b9050919050565b60006020820190508181036000830152612ffb816129b2565b9050919050565b6000602082019050818103600083015261301b816129d5565b9050919050565b6000602082019050818103600083015261303b81612a3e565b9050919050565b6000602082019050818103600083015261305b81612a84565b9050919050565b6000602082019050818103600083015261307b81612aa7565b9050919050565b6000602082019050818103600083015261309b81612aca565b9050919050565b600060208201905081810360008301526130bb81612aed565b9050919050565b600060208201905081810360008301526130db81612b33565b9050919050565b600060208201905081810360008301526130fb81612b56565b9050919050565b6000602082019050818103600083015261311b81612b79565b9050919050565b6000602082019050818103600083015261313b81612b9c565b9050919050565b6000602082019050818103600083015261315b81612bbf565b9050919050565b6000602082019050818103600083015261317b81612c05565b9050919050565b6000602082019050818103600083015261319b81612c6e565b9050919050565b60006020820190506131b76000830184612cb4565b92915050565b60006131c76131d8565b90506131d38282613468565b919050565b6000604051905090565b600067ffffffffffffffff8211156131fd576131fc6135a0565b5b613206826135cf565b9050602081019050919050565b60008190508160005260206000209050919050565b600081519050919050565b600081519050919050565b600082825260208201905092915050565b600082825260208201905092915050565b600081905092915050565b6000613276826133ea565b9150613281836133ea565b9250827fffffffffffffffffffffffffffffffffffffffffffffffffffffffffffffffff038211156132b6576132b5613513565b5b828201905092915050565b60006132cc826133ea565b91506132d7836133ea565b9250826132e7576132e6613542565b5b828204905092915050565b60006132fd826133ea565b9150613308836133ea565b9250817fffffffffffffffffffffffffffffffffffffffffffffffffffffffffffffffff048311821515161561334157613340613513565b5b828202905092915050565b6000613357826133ea565b9150613362836133ea565b92508282101561337557613374613513565b5b828203905092915050565b600061338b826133ca565b9050919050565b60008115159050919050565b60007fffffffff0000000000000000000000000000000000000000000000000000000082169050919050565b600073ffffffffffffffffffffffffffffffffffffffff82169050919050565b6000819050919050565b82818337600083830152505050565b60005b83811015613421578082015181840152602081019050613406565b83811115613430576000848401525b50505050565b6000600282049050600182168061344e57607f821691505b6020821081141561346257613461613571565b5b50919050565b613471826135cf565b810181811067ffffffffffffffff821117156134905761348f6135a0565b5b80604052505050565b60006134a4826133ea565b91507fffffffffffffffffffffffffffffffffffffffffffffffffffffffffffffffff8214156134d7576134d6613513565b5b600182019050919050565b60006134ed826133ea565b91506134f8836133ea565b92508261350857613507613542565b5b828206905092915050565b7f4e487b7100000000000000000000000000000000000000000000000000000000600052601160045260246000fd5b7f4e487b7100000000000000000000000000000000000000000000000000000000600052601260045260246000fd5b7f4e487b7100000000000000000000000000000000000000000000000000000000600052602260045260246000fd5b7f4e487b7100000000000000000000000000000000000000000000000000000000600052604160045260246000fd5b6000601f19601f8301169050919050565b7f4552433732313a207472616e7366657220746f206e6f6e20455243373231526560008201527f63656976657220696d706c656d656e7465720000000000000000000000000000602082015250565b7f4552433732313a20746f6b656e20616c7265616479206d696e74656400000000600082015250565b7f54484952445f574f524400000000000000000000000000000000000000000000600082015250565b7f4552433732313a207472616e7366657220746f20746865207a65726f2061646460008201527f7265737300000000000000000000000000000000000000000000000000000000602082015250565b7f4552433732313a20617070726f766520746f2063616c6c657200000000000000600082015250565b7f222c20226465736372697074696f6e223a20224120686967686c79206163636c60008201527f61696d656420636f6c6c656374696f6e206f6620737175617265732e222c202260208201527f696d616765223a2022646174613a696d6167652f7376672b786d6c3b6261736560408201527f36342c0000000000000000000000000000000000000000000000000000000000606082015250565b7f5345434f4e445f574f5244000000000000000000000000000000000000000000600082015250565b7f4552433732313a206f70657261746f7220717565727920666f72206e6f6e657860008201527f697374656e7420746f6b656e0000000000000000000000000000000000000000602082015250565b7f3c2f746578743e3c2f7376673e00000000000000000000000000000000000000600082015250565b7f4552433732313a20617070726f76652063616c6c6572206973206e6f74206f7760008201527f6e6572206e6f7220617070726f76656420666f7220616c6c0000000000000000602082015250565b7f4552433732313a2062616c616e636520717565727920666f7220746865207a6560008201527f726f206164647265737300000000000000000000000000000000000000000000602082015250565b7f4552433732313a206f776e657220717565727920666f72206e6f6e657869737460008201527f656e7420746f6b656e0000000000000000000000000000000000000000000000602082015250565b7f45524337323155524953746f726167653a2055524920736574206f66206e6f6e60008201527f6578697374656e7420746f6b656e000000000000000000000000000000000000602082015250565b7f227d000000000000000000000000000000000000000000000000000000000000600082015250565b7f4552433732313a206d696e7420746f20746865207a65726f2061646472657373600082015250565b7f45524337323155524953746f726167653a2055524920717565727920666f722060008201527f6e6f6e6578697374656e7420746f6b656e000000000000000000000000000000602082015250565b7f4552433732313a20617070726f76656420717565727920666f72206e6f6e657860008201527f697374656e7420746f6b656e0000000000000000000000000000000000000000602082015250565b7f4552433732313a207472616e73666572206f6620746f6b656e2074686174206960008201527f73206e6f74206f776e0000000000000000000000000000000000000000000000602082015250565b7f4552433732314d657461646174613a2055524920717565727920666f72206e6f60008201527f6e6578697374656e7420746f6b656e0000000000000000000000000000000000602082015250565b7f7b226e616d65223a202200000000000000000000000000000000000000000000600082015250565b7f4552433732313a20617070726f76616c20746f2063757272656e74206f776e6560008201527f7200000000000000000000000000000000000000000000000000000000000000602082015250565b7f46495253545f574f524400000000000000000000000000000000000000000000600082015250565b7f646174613a6170706c69636174696f6e2f6a736f6e3b6261736536342c000000600082015250565b7f4552433732313a207472616e736665722063616c6c6572206973206e6f74206f60008201527f776e6572206e6f7220617070726f766564000000000000000000000000000000602082015250565b7f434f4c4f52000000000000000000000000000000000000000000000000000000600082015250565b613c4a81613380565b8114613c5557600080fd5b50565b613c6181613392565b8114613c6c57600080fd5b50565b613c788161339e565b8114613c8357600080fd5b50565b613c8f816133ea565b8114613c9a57600080fd5b5056fe416e204e465420772f20494420257320686173206265656e206d696e74656420746f2025734142434445464748494a4b4c4d4e4f505152535455565758595a6162636465666768696a6b6c6d6e6f707172737475767778797a303132333435363738392b2fa26469706673582212206faf709f7fdbec1451ea4de582327a1cde6d8869f3a9b5217878c0c14001b12964736f6c634300080400333c73766720786d6c6e733d27687474703a2f2f7777772e77332e6f72672f323030302f73766727207072657365727665417370656374526174696f3d27784d696e594d696e206d656574272076696577426f783d273020302033353020333530273e3c7374796c653e2e62617365207b2066696c6c3a2077686974653b20666f6e742d66616d696c793a2073657269663b20666f6e742d73697a653a20323470783b207d3c2f7374796c653e3c726563742077696474683d273130302527206865696768743d2731303025272066696c6c3d27272f3e3c7465787420783d273530252720793d273530252720636c6173733d27626173652720646f6d696e616e742d626173656c696e653d276d6964646c652720746578742d616e63686f723d276d6964646c65273e",
  "linkReferences": {},
  "deployedLinkReferences": {}
}